:020000040800F2
:10600000000E00204D750008E5B90108E9B9010846
:1060100093870608EDB90108F5B90108752506084A
:1060200075250608752506087525060875250608D0
:10603000F9B90108582A0808E3F000087525060890
:10604000857E00087525060875250608752506084D
:106050001D8800087525060875250608752506089B
:106060007525060875250608F18D010875250608B1
:106070007525060875250608752506087525060880
:106080007525060875250608752506087525060870
:1060900075250608E9840008752506087525060893
:1060A000752506082B290608032906087525060804
:1060B00075250608453C0408D1460408D1DB0708CD
:1060C000CDDB0708793E0408DDDB0708D5DB0708D0
:1060D000A9460408D9DB0708114704087D470408CE
:1060E0007525060875250608E9BB0108752506080B
:1060F0009F8106087525060875250608752506087A
:1061000075250608752506087525060875250608EF
:1061100075250608752506087525060875250608DF
:1061200075250608752506087525060875250608CF
:1061300075250608752506087525060875250608BF
:10614000752506085D29010875250608CF8A060809
:106150001123040875250608B9D80708BFD8070811
:10616000752506087525060875250608752506088F
:10617000013800D0FCE7704700B583B001901E4A9B
:10618000019B13601C4B00225A601B4B1B4A9A60F8
:106190001B4B00221A601A4B0B221A71184B1A2241
:1061A0005A7140227F2117487CF04CF904227F214C
:1061B00015487CF047F9104819F0FAFA0346134ADB
:1061C0001360124B1B68002B01D100BFFDE708A331
:1061D000D3E900234FF0FF304FF0FF3119F004F9FD
:1061E0000021074819F066FB00BF03B05DF804FB0F
:1061F0000BE020FFE2030000C4F80020D4F80020E8
:1062000058F9002080F80020C0F8002064F9002030
:1062100030B58BB0022019F077F9034683F0010303
:10622000DBB2002B01D000BFFDE7A54B1B68002BA4
:1062300001D100BFFDE70023099302238DF823302D
:10624000102019F061F90346002B04D0012122200F
:1062500019F016F903E00021222019F011F9984BEA
:106260001B689B88DBB28DF82130964B18680DF1C6
:106270002101012301220AF05BFC924B1868904B2C
:106280001B6819689DF82130023B9AB200230AF07E
:106290004FFC8D4A05AB07CA83E80700884B1B6893
:1062A0001B681B7803F02003002B14BF012300237D
:1062B0008DF822309DF82230002B35D0099B43F019
:1062C000010309937F4B1B68184609F095FE0346AE
:1062D000002B26D07B4B1B68184609F08DFE034629
:1062E000184658F0F9FD02460B4671A1D1E90001AC
:1062F00058F096FF02460B4614461D46079B18466B
:1063000058F0EAFD02460B462046294658F0A8FC04
:1063100002460B461046194659F01AF903460793F0
:1063200002E0079BC0330793664B1B68184609F0D1
:1063300073FE0346002B35D09DF821300633DB0079
:10634000184658F0D9FD5CA3D3E9002358F03EFE6F
:1063500002460B4614461D465A4B1B68184609F068
:106360005BFE0346184658F0B7FD02460B46204632
:10637000294658F055FF02460B4614461D46079B1A
:10638000184658F0A9FD02460B462046294658F00B
:1063900067FC02460B461046194659F0D9F80346E9
:1063A000079306E0079B9DF8212006325201134413
:1063B0000793434B1B68DB69002B3AD1102019F07F
:1063C000A3F80346002B1ED0079B03F5FA7307932F
:1063D0003B4B1B6893F820203C4B9A703C4B93F945
:1063E00000203A4BDA70374B1868354B1B689B79A5
:1063F000194605AB0093354B099A0AF0D5F80346C8
:106400008DF823300CE02F4B18682D4B1B689B79BF
:10641000194605AB099A0AF077F903468DF823303F
:106420009DF82330002B2DD10021252019F028F8CC
:1064300028E0234B1B689A69214B1B68DB691344D6
:10644000A03B029300238DF80C3000238DF80D3013
:106450001C4B18681A4B1B689B79194602AA05AB9E
:1064600001931C4B00931346099A0AF031FA034634
:106470008DF823309DF82330002B03D100212520F7
:1064800018F0FEFF9DF82330002B0CD09DF8223031
:106490001946262018F0F4FF4FF4805100201AF01E
:1064A00079FD63F0A2FE00BF0BB030BDAFF30080FA
:1064B0000000000060E366410000000080842E417F
:1064C00064F8002064F90020FC4B0808840F0020C9
:1064D00057150020900F002010B59CB0099008912E
:1064E000079206938DED040B00231B934FF00002DF
:1064F0004FF00003CDE91423DDE90423DDE90401B5
:1065000058F0CCFF0346002B0FD1209B03931F9B19
:10651000029303230193824B0093069B079A0899E9
:10652000099875F0C9F8034622E24FF0FF326FF484
:106530008013DDE9040158F0BBFF0346002B0FD0A8
:10654000209B03931F9B029304230193754B00939D
:10655000069B079A0899099875F0AEF8034607E27A
:106560004FF0FF32704BDDE9040158F0BFFF0346E6
:10657000002B1DD0209B03F00403002B01D06B4B9C
:1065800000E06B4B209A02F00402002A01D00422A2
:1065900000E00322209903911F9902910192009338
:1065A000069B079A0899099875F086F80346DFE17B
:1065B00057A3D3E90023DDE9040158F097FF034610
:1065C000002B09D154A3D3E90023DDE9040158F0DD
:1065D0006FFF0346002B0FD0209B02931F9B01935C
:1065E0001E9B00939DED040B069B079A0899099842
:1065F00000F0CAF90346BBE100238DF86B304FF081
:1066000000024FF00003DDE9040158F051FF03469A
:10661000002B0ED001238DF86B30DDE904234FF001
:1066200000004FF0000158F019FB02460B46CDE97F
:106630000423209B03F48063002B0DD106231E93BB
:106640000AE01B9B5A1C1B9270336B44302203F8E8
:10665000482C1E9B013B1E931B9B1F2B02D81E9B8D
:10666000092BEED8DDE9040158F04AFF03461993DF
:10667000199858F041FC02460B46DDE9040158F038
:10668000EDFA02460B46104619462A4A1E9BDB00CD
:106690001344D3E9002358F099FC02460B46CDE998
:1066A0001223DDE9120158F053FF0346189318989E
:1066B00058F012FC02460B46DDE9120158F0CEFA02
:1066C00002460B46CDE914234FF000021A4BDDE9D8
:1066D000140158F00BFF0346002B2FD0189B0133F9
:1066E0001893189858F0F8FB124A1E9BDB001344CD
:1066F000D3E9002358F0F0FE0346002B33D00023EB
:106700001893199B013319932DE000BFAFF300805C
:106710000000000065CDCD410000000065CDCDC179
:10672000707A0808747A0808FFFFEF7F7C7A0808FF
:10673000847A0808887A08080000E03F4FF00002D9
:106740008D4BDDE9140158F0B3FE0346002B0AD14E
:10675000189B002B04D0189B03F00103002B02D0E0
:10676000189B013318931E9B002B33D1199858F0B6
:10677000C3FB02460B46DDE9040158F06FFA0246FE
:106780000B46CDE9142301231C464FF000027A4B3F
:10679000DDE9140158F08CFE0346002B01D10023E3
:1067A0001C46E3B283F00103DBB2002B09D14FF0AA
:1067B0000002714BDDE9140158F098FE0346002BEE
:1067C0004CD0199B03F00103002B69D0199B0133B6
:1067D000199365E01E9B17931FE0179B013B1793CE
:1067E0001899664BA3FB0123DA0813469B00134458
:1067F0005B00CA1AD2B21B9B591C1B913032D2B219
:1068000070336B4403F8482C189B5C4AA2FB0323AB
:10681000DB081893189B002B03D01B9B1F2BDCD984
:1068200009E000BF07E01B9B5A1C1B9270336B44AE
:10683000302203F8482C1B9B1F2B04D8179B5A1E91
:106840001792002BEFD11B9B1F2B29D81B9B5A1C87
:106850001B9270336B442E2203F8482C20E0199AC7
:10686000474B83FB02139910D317C91A0B469B00A1
:106870000B445B00D11ACAB21B9B591C1B913032CE
:10688000D2B270336B4403F8482C199B3C4A82FB0C
:1068900003129210DB17D31A1993199B002B03D004
:1068A0001B9B1F2BDBD900E000BF209B03F00203E2
:1068B000002B23D1209B03F00103002B1ED01F9B34
:1068C000002B14D09DF86B30002B04D1209B03F0DB
:1068D0000C03002B0BD01F9B013B1F9307E01B9B5E
:1068E0005A1C1B9270336B44302203F8482C1B9ABD
:1068F0001F9B9A4202D21B9B1F2BF0D91B9B1F2B65
:1069000027D89DF86B30002B08D01B9B5A1C1B927C
:1069100070336B442D2203F8482C1AE0209B03F0BF
:106920000403002B08D01B9B5A1C1B9270336B4432
:106930002B2203F8482C0CE0209B03F00803002BCB
:1069400007D01B9B5A1C1B9270336B44202203F808
:10695000482C209B03931F9B02931B9B01930AAB24
:106960000093069B079A0899099874F0A5FE0346C0
:1069700018461CB010BD00BF0000E03FCDCCCCCC11
:1069800067666666000000002DE9F04F9FB00F902B
:106990000E910D920C938DED0A0BDDE90A23DDE9D2
:1069A0000A0158F07BFD0346002B14D04FF0FF3254
:1069B000BF4BDDE90A0158F099FD0346002B0AD1CF
:1069C0004FF0FF326FF48013DDE90A0158F070FDDB
:1069D0000346002B0FD02A9B0293299B0193289BEF
:1069E00000939DED0A0B0C9B0D9A0E990F98FFF7E3
:1069F00073FD03462CE2012398464FF000024FF04E
:106A00000003DDE90A0158F053FD0346002B01D1D4
:106A1000002398468DF86B809DF86B30002B09D0D1
:106A20000A9B08930B9B83F0004309939DED087B21
:106A30008DED0A7B2A9B03F48063002B01D1062392
:106A40002893DDE90A23CDE91023DDE910014FF099
:106A500000024FF000030A0D00231346C3F30A039C
:106A6000A3F2FF331993DDE910231646C3F313078E
:106A7000344647F07F5545F44015CDE91045199847
:106A800058F03AFA7EA3D3E9002358F09FFA024661
:106A90000B46104619467CA3D3E9002358F0E0F8D2
:106AA00002460B4614461D46DDE910014FF0000278
:106AB000804B58F0D3F802460B461046194674A393
:106AC000D3E9002358F082FA02460B4620462946B5
:106AD00058F0C6F802460B461046194658F010FD0D
:106AE00003461D931D9858F007FA6BA3D3E90023C2
:106AF00058F06CFA02460B46104619464FF0000259
:106B00006D4B58F0ADF802460B461046194658F04A
:106B1000F7FC034619931D9858F0EEF960A3D3E9EA
:106B2000002358F053FA02460B4614461D461998A6
:106B300058F0E2F95CA3D3E9002358F047FA024683
:106B40000B462046294658F089F802460B46CDE907
:106B50001623DDE91623DDE9160158F037FA02465F
:106B60000B46CDE91423199B03F2FF33DA179A463B
:106B700093464FF000024FF000034FEA0A53002201
:106B8000CDE91023DDE91045DDE9160102460B468B
:106B900058F066F802460B4616461F46DDE91623F6
:106BA0004FF000004FF0804158F058F802460B4675
:106BB000904699464FF00002404BDDE9140158F031
:106BC0002FFB02460B46104619464FF000023C4B85
:106BD00058F046F802460B46DDE9140158F020FB58
:106BE00002460B46104619464FF00002354B58F04E
:106BF00037F802460B46DDE9140158F011FB024656
:106C00000B464046494658F02BF802460B463046A4
:106C1000394658F005FB02460B46104619464FF020
:106C20000002294B58F01CF802460B462046294624
:106C300058F0CCF902460B46CDE91023DDE91023CC
:106C4000DDE90A0158F034FC0346002B0DD01D9BF2
:106C5000013B1D93DDE910014FF00002184B58F085
:106C6000DFFA02460B46CDE910231D9B632B2DDC7A
:106C70001D9B13F1630F29DB042328E0AFF3008091
:106C8000FB799F501344D33FB3C8608B288AC63F1B
:106C900061436F63A787D23F71A379094F930A407D
:106CA0001655B5BBB16B0240EF39FAFE422EE63FF6
:106CB000FFFFEF7F0000F83F0000E03F00002C40A6
:106CC00000002440000018400000F03F05231C9302
:106CD0002A9B03F40063002B33D05FA3D3E9002386
:106CE000DDE90A0158F0F8FB0346002B1ED05CA337
:106CF000D3E90023DDE90A0158F0DAFB0346002B53
:106D000014D0289B1D9A9A4205DA289A1D9BD31A03
:106D1000013B289301E0002328932A9B43F48063DE
:106D20002A9300231C9300231D930AE0289B002B29
:106D300007D02A9B03F48063002B02D0289B013BE1
:106D40002893299B1B93299A1C9B9A4204D91B9A2E
:106D50001C9BD31A1B9301E000231B932A9B03F077
:106D60000203002B04D01C9B002B01D000231B939B
:106D70001D9B002B09D0DDE91023DDE90A0158F045
:106D80004FFA02460B46CDE90A230D9B13939DF85B
:106D90006B30002B06D00A9B06930B9B83F00043BD
:106DA000079303E09DED0A7B8DED067B2A9B23F480
:106DB000006302931B9B0193289B00939DED060BA0
:106DC0000C9B0D9A0E990F98FFF786FB0D901C9B5C
:106DD000002B3CD02A9B03F02003002B01D0452040
:106DE00000E065200D9A531C0D930F9C0C9B0E998F
:106DF000A0471D9B002BB8BF5B4218461D9BDB0FB5
:106E0000DBB21C9A013A05210591049200220392FB
:106E10000A220292019300900C9B0D9A0E990F98F2
:106E200074F073FD0D902A9B03F00203002B0ED02B
:106E300007E00D9A531C0D930F9C0C9B0E9920207C
:106E4000A0470D9A139BD31A299A9A42F1D80D9B09
:106E500018461FB0BDE8F08F2D431CEBE2361A3FF9
:106E60000000000080842E4170B58EB02C220021DD
:106E700003A87BF0E7FA64234FF002320893CDE9D0
:106E800005230B2301218DF83430534B8DF810105E
:106E90001B88D80700F19880084641F0D1FC0A22EF
:106EA0004E4B4F491A704FF428734E48ADF81230CC
:106EB00008F0A2FB4C4C206020B94FF411714B48F4
:106EC00014F0B6FB20680BF013FA0521206808F0D7
:106ED00007FE20B14FF41571444814F0A9FB206857
:106EE00000F0E8F9424B2068196809F02FFA0C25E8
:106EF00042F0C8FB6843099042F0C4FB68430DEBC5
:106F000005010790206808F01DFC20B140F26921BE
:106F1000364814F08DFB00223649206808F03EFE0A
:106F200020B140F26B21314814F082FB40F2035350
:106F3000314D324E2B80052396F90000AB707F282F
:106F400001D141F04BFE3378EB7042F09BFB00EB3C
:106F500080008000A88042F095FB0023C0004FF025
:106F6000FF31E880AB604FF0FF3019A3D3E9002375
:106F700041F092FE2249206808F0C4FF206802A96F
:106F800008F0E6FF20B14FF42971184814F050FBC7
:106F9000042220680DEB020108F0ECFF042804D065
:106FA00040F2A721114814F043FB01A9012077F01A
:106FB0009BFF14F05BFD012042F00EFE5CF0A3FE8F
:106FC00042F04EFE41F0C4FC0EB070BDAFF3008045
:106FD0000A0020FF420300004C3F01205C410120D9
:106FE00069880408EC110020743A01208ABB080863
:106FF000800F00206A410120683A0120941500208A
:10700000118A04080348044B834202D0034B03B1A6
:1070100018477047882100208821002000000000C8
:10702000064B0749C91A891048BF0131491003D0DE
:10703000044B0BB101481847704700BF882100205E
:10704000882100200000000010B5064C237843B9C9
:10705000FFF7D8FF044B13B10448AFF300800123BE
:10706000237010BDE03F0120000000005CBF080855
:1070700008B5054B1BB105490548AFF30080BDE8D5
:107080000840FFF7CDBF00BF00000000E87B0020F4
:107090005CBF0808A3F5803A704700BF174B002B70
:1070A00008BF134B9D46FFF7F5FF00218B460F46A7
:1070B0001348144A121A7BF0C5F90E4B002B00D06E
:1070C00098470D4B002B00D098470020002104006A
:1070D0000D000D48002802D00C48AFF3008058F096
:1070E000EBFD2000290059F078F958F057FC00BF5B
:1070F000000008000000000000000000000E00205A
:1071000088210020E841012000000000000000006C
:10711000014B1B6818467047007C002008B570F0D2
:10712000DBFE0346064A1360054B1B68002B05D1A6
:10713000044B054A5221054858F00AFC00BF08BD1F
:10714000007C0020E0290808F8290808EC29080834
:1071500008B5034B1B6818461BF096F800BF08BD26
:10716000007C002000B583B003468DF807309DF801
:107170000730002B0FD1FF23FF22094909481EF0D9
:1071800075F8FF2107481EF0FBF80346002118465A
:1071900044F0B4FB00E000BF00BF03B05DF804FBA7
:1071A000A9710008047C002000B583B0019014F0A0
:1071B0006BFDFF2106481EF0E3F803464FF47A7199
:1071C000184644F09BFB00BF03B05DF804FB00BF12
:1071D000047C002008B502F0E7F95BF0A6FC304B18
:1071E0001B6F23F007032E4A43F0030313675BF082
:1071F000A9FC2C4B9B6A03F08073002B06D1294B12
:1072000003F500531A464FF480339362244BD3F8AE
:10721000203123F00703224A43F00203C2F8203151
:107220001F4BD3F8283123F007031D4A43F0020314
:10723000C2F828311A4BD3F8403123F00303184A1F
:1072400043F00203C2F84031154BD3F8603123F00C
:107250000303134A43F00203C2F86031104BD3F822
:10726000403223F003030E4A43F00203C2F84032D7
:107270000B4BD3F8003223F00703094A43F0020313
:10728000C2F80032064BD3F8083223F00703044A51
:1072900043F00203C2F808320023184608BD00BFBD
:1072A000008000500040005A014B1B781846704780
:1072B000E13F012000B585B0019002238DF80F3029
:1072C00059F00CF903468DF80E309DF80E30002B66
:1072D00006D1019808F0F2FD03468DF80F3000E06A
:1072E00000BF054A9DF80E3013709DF80F30184608
:1072F00005B05DF804FB00BFE13F012000B583B09D
:1073000001900091009A0449019859F012F903463E
:10731000184603B05DF804FB302A080800B583B0B6
:1073200002238DF800300022022107485BF075F837
:10733000034601936B46082118465BF09AF800BF9C
:1073400003B05DF804FB00BF006A180082B003467A
:1073500000918DF807309DF80730002B0AD09DF87A
:107360000730012B06D09DF80730022B02D09DF884
:107370000730032B08489DF807200121009B994006
:1073800013465B0013441B01034403F501531960CA
:1073900000BF02B0704700BF00C0035082B0034678
:1073A00000918DF807309DF80730002B0AD09DF82A
:1073B0000730012B06D09DF80730022B02D09DF834
:1073C0000730032B08489DF807200121009B9940B6
:1073D00013465B0013441B01034403F582531960F9
:1073E00000BF02B0704700BF00C0035030B589B085
:1073F000454B01AC1D460FCD0FC495E8070084E84E
:10740000070001213A2001F071FB0121292001F040
:107410006DFB01238DF812303C4B039301AB1946F1
:107420003B485BF0A6FD012304220121022003F06A
:1074300075FB002301220221022003F06FFB0123D0
:1074400004220321022003F069FB0123042204210A
:10745000022003F063FB2F4B2F4AC3F834272D4B38
:107460004FF00212C3F830272A4B2C4AC3F83827B2
:10747000284B1C22C3F820274FF4487017F0EAF875
:107480005BF06AF8142017F0E5F85BF06CF8232045
:1074900017F0E0F85BF060F8B9211D485BF0E0FD03
:1074A0005BF061F8002300220121022003F036FB8B
:1074B000002300220221022003F030FB01230022DE
:1074C0000321022003F02AFB0123002204210220D1
:1074D00003F024FB0E4804F0DDF80E4B0022C3F845
:1074E00034270C4B0022C3F830270A4B0022C3F884
:1074F0003827084B0022C3F820270021292001F05B
:10750000F5FA00BF09B030BD3C2A080800127A0025
:1075100000C0055000C0035002000300020001003B
:1075200000B583B0064A074BD31A9B100193019A0A
:10753000054904485BF020F800BF03B05DF804FB88
:107540005CD208085CD20808E841012000B585B08B
:1075500000F080F8FFF7E4FF1F4B039319E00023CE
:1075600002930EE0039B1A68029B9B001A44039B44
:107570005968029B9B000B4412681A60029B0133FE
:107580000293039B9B68029A9A42EBD3039B0C33B2
:107590000393039B114A9342E1D3114B019314E0EF
:1075A0000023009309E0019B1A68009B9B00134491
:1075B00000221A60009B01330093019B5B68009AD4
:1075C0009A42F0D3019B08330193019B054A9342F1
:1075D000E6D3FFF763FD00BF64BF080870BF08086B
:1075E00070BF080870BF080882B003468DF80730E6
:1075F0009DF90730002B0CDB9DF8073003F01F02CC
:1076000005499DF907305B09012000FA02F241F8B3
:10761000232000BF02B0704700E100E082B00346C3
:107620008DF807309DF90730002B0DDB9DF80730F2
:1076300003F01F0206499DF907305B09012000FA9B
:1076400002F2603341F8232000BF02B0704700BF50
:1076500000E100E008B51D4B1D4A9A601B4BD3F8B2
:1076600088301A4A43F47003C2F88830194B03F586
:1076700080531A464FF480439366174B03F500532B
:107680001A464FF0FF331366134B03F500531A46A7
:10769000124B5366124B02221A60BFF34F8F00BF8A
:1076A000BFF36F8F00BF0020FFF7B8FF0A4B03F551
:1076B00000531A464FF44033D3600020FFF794FF85
:1076C000054B4FF440321A6100BF08BD00ED00E0E9
:1076D000006000080080005000800044F7FF370081
:1076E000D0ED00E0014B1B6818467047A40E002047
:1076F00000B583B0002301930E4B1B6F03F007030B
:10770000032B09D0032B0FD8012B09D0022B0BD14F
:10771000FFF7E8FF019008E0074B1B68019304E0C6
:10772000064B019301E0FFE7FDE7019B184603B01C
:107730005DF804FB008000509C0E0020002D3101FC
:1077400000B583B0FFF7D4FF01900A4B1B6F1B0BF2
:1077500003F00F030093009B0133019AB2FBF3F394
:107760000193054A019B1360019B184603B05DF825
:1077700004FB00BF00800050A80E0020014B1846FB
:10778000704700BF00B4C404014B1B681846704723
:107790009C0E002000B583B00190074A019B136046
:1077A000064B1B6F03F00703032B01D1FFF7C8FF44
:1077B00000BF03B05DF804FB9C0E00200080005069
:1077C000014B1846704700BF002D310182B00023E5
:1077D00001934FF0B4439B681B0C03F01F030C2B69
:1077E0004CD801A252F823F01D7800087D780008DB
:1077F0007D7800087D7800087D7800087D78000895
:10780000597800085F780008657800087D780008DE
:107810006B78000871780008777800084FF0B4435F
:107820009B6803F04073B3F1007F0ED0B3F1007F8B
:107830000ED8002B03D0B3F1807F03D008E0124BA9
:10784000019308E0114B019305E0114B019302E015
:107850000023019300BF12E00E4B01930FE00E4B8B
:1078600001930CE00D4B019309E00D4B019306E0F1
:107870000C4B019303E00C4B019300E000BF019B14
:10788000184602B0704700BF00093D0080841E000A
:1078900040420F00405DC6000024F400C0EA210110
:1078A00080BA8C010048E801005A6202014B1B6853
:1078B00018467047A00E002082B003468DF80730AE
:1078C0009DF90730002B0CDB9DF8073003F01F02F9
:1078D00005499DF907305B09012000FA02F241F8E1
:1078E000232000BF02B0704700E100E082B00346F1
:1078F0008DF807309DF90730002B0DDB9DF8073020
:1079000003F01F0206499DF907305B09012000FAC8
:1079100002F2603341F8232000BF02B0704700BF7D
:1079200000E100E0BFF34F8F00BF064BDB6803F4BC
:10793000E0620449044B1343CB60BFF34F8F00BF99
:1079400000BFFDE700ED00E00400FA0582B0019001
:10795000019BB3F1006F05D3019B044A934201D20E
:10796000012300E00023184602B0704700600008C1
:1079700000B583B00190184B1B681846FFF7E6FF6F
:10798000034683F00103DBB2002B06D0019B0022EB
:107990001A70019B00229A6019E00F4B1B681B684C
:1079A0000E4A93420DD1019B01221A700A4B1B68AB
:1079B0009A68019B5A60084B1B689A69019B9A6000
:1079C00005E0019B00221A70019B00229A6000BF13
:1079D00003B05DF804FB00BF2800000807B0CD5ECF
:1079E00000B583B0254B1B681846FFF7AFFF034671
:1079F00083F00103DBB2002B02D04FF4817339E036
:107A00001E4B1B681B681E4A934202D04FF48173C1
:107A100030E01C4B1B78002B03D01A4B1B78022B39
:107A200025D1194800F060F80020FFF75FFF174BE1
:107A300003F500531A464FF48033D3600020FFF75C
:107A40003BFF124B03F580531A464FF4803313610A
:107A50000A4B1B68DB69984701900B4800F056F908
:107A6000019B002B05D1074B01221A7001E0002376
:107A70000193019B184603B05DF804FB2800000841
:107A800007B0CD5EE43F0120307C00200080004440
:107A900000B587B001900091124B1B681846FFF7A4
:107AA00055FF034683F00103DBB2002B16D10123FF
:107AB0008DF80C30002304930023059303AB184684
:107AC000FFF756FF059B03F48063002B07D0054B9F
:107AD0001B681B6C00990198984700E000BF07B035
:107AE0005DF804FB2800000800B587B001907B4BCF
:107AF0001B78002B03D0794B02221A70EAE0002396
:107B0000039300230293019B002B00F0E280734B50
:107B100001221A705BF07DF80346714A136039F058
:107B200039F8704B1B7883F00103DBB2002B15D0C2
:107B300000F0DEFD0590059B002B0FD16A4B0493EE
:107B40006A4B186808236A4A049932F083FC05904E
:107B5000059B002B02D1634B01221A70654B5A6EB4
:107B6000019B5A61634B9A6E019B9A61614B03F5CD
:107B700080531A464FF4804393665F4B5A68019BCB
:107B8000DA615D4B5D4A9A605B4B1A6E019B1A602D
:107B9000594B5A6E019B5A60574BD3F87021019B89
:107BA0009A60554B1A6C019BDA60534B5A6C019BDF
:107BB0001A61534B504A1B6C1364514B4E4A5B6C19
:107BC00053644C4B03F580531A46012353664A4BCA
:107BD0001B6E03F40053002B07D000BF494BDB683A
:107BE00003F00103002BF9D106E000BF464BDB6830
:107BF00003F00103002BF9D100F0F4F83E4B03F53C
:107C000080531A46042313663B4B03F580531A46F0
:107C10004FF40073136600F0B7F90346B3F1FF3F6A
:107C20001BD000F0B1F9034640F20112934214D088
:107C3000314B03F580531A464FF4005313662E4B15
:107C400003F580531A464FF4804313662A4B03F51D
:107C500080531A460423C2F87031274B03F5805332
:107C60001A4608231366244B03F580531A464FF433
:107C700080531366204B03F580531A464FF0006380
:107C800013661D4B03F580531A464FF400235366C9
:107C900002AA03AB11461846FFF7FAFE164A039BE9
:107CA00002F580521366144A029B02F58052536615
:107CB0000C4B1B78002B0DD00F4A0D4B1B6802F5A7
:107CC000805213660C4A0A4B5B6802F58052536679
:107CD00000E000BF07B05DF804FB00BFE33F0120F8
:107CE0002C7C0020E23F012000710800B40E00202F
:107CF000247C0020008000500080004455CEAC0061
:107D000000C00054000004400000045000B583B0DF
:107D100001902E4B1B78012B03D02C4B01221A70A3
:107D200050E0019B002B4CD000F02EF90346B3F13C
:107D3000FF3F13D000F028F9034640F201129342AE
:107D40000CD0234B03F580531A460123536600BF22
:107D5000204BDB6803F00103002BF9D11E4A019B85
:107D60001B6813661C4A019B5B6853661A4A019B99
:107D70009B68C2F87031184A019BDB681364164A8D
:107D8000019B1B695364019BDB6903F00103002B1A
:107D900002D0114B00229A6000F058F80F4A019B64
:107DA0005B6953660D4A019B9B69936638F0FAFE46
:107DB0000B4B1B6818465AF03CFF044B00221A700C
:107DC00000E000BF03B05DF804FB00BFE33F01200B
:107DD000008000400000044000800044008000500B
:107DE0002C7C0020144B1B68B3F1FF3F0AD0124BD0
:107DF0001B68124A4FF4801101FA03F302F5805216
:107E0000136670470E4B1B78002B12D10D4B03F5F8
:107E100080531A464FF4007353660B4B5B68002B7C
:107E200008D1064B03F580531A464FF480131366AE
:107E3000704700BF704700BFAC0E002000800044B8
:107E4000E43F01200080005000C005500A4B1B6831
:107E5000B3F1FF3F0DD1094B1B78002B09D1084B23
:107E60005B6803F00103002B04D0034B00221A606F
:107E7000704700BF704700BFAC0E0020E43F0120F8
:107E800000C0055000B587B0314B1B78002B01D1E5
:107E900000BFFDE701AB00221A605A602D4B05932D
:107EA0002D4B186801AA0823059932F0D3FA0490E3
:107EB000049B002B1ED1294BD3F840311F2B09D92D
:107EC000264BD3F84031203B01229A40029B1343BA
:107ED000029307E0214BD3F8403101229A40019BE5
:107EE000134301931C4B186801AA0823059932F02B
:107EF00067FA1FE0049B1A4A93421BD1174BD3F831
:107F000040311F2B08D9154BD3F84031203B0122BB
:107F100002FA03F3029306E0104BD3F8403101223A
:107F200002FA03F301930C4B186801AA0823059980
:107F300032F046FA4FF000530393039B40F20B22BA
:107F40001A80039B4FF20F025A80FFF7EBFC00BF31
:107F5000E33F012000710800B40E002000800044BF
:107F60000BE000F082B00190019BB3F1006F05D3EC
:107F7000019B044A934201D2012300E000231846EA
:107F800002B070470060000800B587B0244B1B6842
:107F90001846FFF7E7FF034683F00103DBB2002B2F
:107FA0000BD11F4B1B681B6B1846FFF7DBFF03460B
:107FB00083F00103DBB2002B02D040F201132BE06F
:107FC00001238DF80430002302930023039301ABB7
:107FD0001846FFF7CDFC039B03F48033002B02D13E
:107FE00040F2011318E0029B1B0E0593029B1B0C31
:107FF000DBB20493059B002B05D0059B012B05D11B
:10800000049B0A2B02D840F2011305E0044B1B68C5
:108010001B6B1B6C98470346184607B05DF804FBC2
:108020002800000884B001900B4B1A68019B134490
:108030000A4A934202D94FF0FF3309E0064B1B680E
:108040000393054B1A68019B1344034A1360039B77
:10805000184604B0704700BFB00E00200000042096
:1080600000B585B003468DF807309DF80730002B2A
:1080700001D0012300E000230393039A0021034869
:108080005AF0CEFB00BF05B05DF804FB44C40350BA
:1080900000B585B0002303930023ADF80A30002318
:1080A000ADF808300023019301213A2000F01EFDB5
:1080B000012304220321002002F030FD01985AF030
:1080C00024FE0120FFF7CCFF474B03F580531A46EF
:1080D0004FF400235366454BDB6803F08073002B9D
:1080E00014BF012300238DF803309DF80330002BCB
:1080F00005D03E4BDB683D4A23F08073D3603A4B9A
:10810000D3F8803023F00303374A43F00203C2F868
:1081100080309DF80330002B05D0344BDB68334AA8
:1081200043F08073D3604FF4607000F00BFD039058
:108130002E4B1B682D4A43F0010313602B4BDB6869
:108140002A4A43F08073D3600123ADF80A300F232D
:10815000ADF80830BDF80A305A02BDF808305B00AF
:108160001A432349234B13430B60039B03F5D52389
:1081700003F2FC43DB08204AA2FB03239B0A1F4AAD
:10818000013B13611D4B0222C3F8F0201B4B4FF43F
:108190008072C3F804234FF06043194AC3F8B02F2C
:1081A0004FF06043174AC3F8802E4FF06043D3F876
:1081B000003E4FF0604243F48073C2F8003E4FF03F
:1081C0006043FF2283F820204FF06043D3F8003E45
:1081D0004FF0604223F48073C2F8003E002318463B
:1081E00005B05DF804FB00BF00800050F0ED00E03A
:1081F000001000E0E101004017916502000004E07A
:1082000055CEACC50900010082B001900B468DF837
:1082100003304FF06043D3F8803E03F00103002B9E
:1082200022D0134BDB68124A43F08073D3604FF0C7
:108230006043D3F8002E0121019B01FA03F34FF0B4
:1082400060411343C1F8003E4FF06042019B52F879
:108250002330002BE5D04FF06041019B9DF80320B7
:1082600001F82320002300E01123184602B07047D4
:10827000F0ED00E000B585B001900091204B1B7837
:1082800083F00103DBB2002B01D01E4B34E0019BD5
:10829000002B01D11C4B2FE05AF0BBFC02900023B5
:1082A000039322E0194A039B1B0113440C331B78F0
:1082B00083F00103DBB2002B14D0019B039A1A60F8
:1082C000124A039B1B0113440C3301221A700F4AFC
:1082D000039B1B01134400221A6002985AF0A9FC68
:1082E000002309E0039B01330393039B072BD9D998
:1082F00002985AF09EFC064B184605B05DF804FB48
:10830000E53F0120028000F0018000F0507C002059
:10831000048000F000B585B00190164B1B7883F007
:108320000103DBB2002B01D0134B1FE0019B072B95
:1083300001D9124B1AE05AF06CFC0390104A019BD1
:108340001B0113440C331B78002B0BD00C4A019BF0
:108350001B0113440C3300221A7003985AF069FC75
:10836000002303E003985AF064FC064B184605B05E
:108370005DF804FBE53F0120028000F0018000F081
:10838000507C0020068000F000B585B0194B1B68BA
:10839000019300238DF804305AF03BFC0290164BF9
:1083A0001B78002B04D002985AF043FC134B1DE0BD
:1083B000114B01221A7002985AF03BFC00230393E0
:1083C00009E00F4A039B1B0113440C3300221A706F
:1083D000039B01330393039B072BF2DD08238DF8E6
:1083E000073001AB184602F06FFC0023184605B0B9
:1083F0005DF804FBA82A0808E53F0120038000F08F
:10840000507C002000B587B0039002910192009348
:10841000174B1B7883F00103DBB2002B01D0154B07
:1084200021E0039B072B01DD134B1CE0039B1B0189
:10843000124A13440593059B1B7B83F00103DBB2B7
:10844000002B01D00E4B0EE0059B009A1A60059B95
:10845000089A5A60059B00229A60019A0299039833
:1084600002F076FC0023184607B05DF804FB00BF5D
:10847000E53F0120028000F0018000F0507C0020E8
:10848000078000F000B583B00190124B1B7883F099
:108490000103DBB2002B01D00F4B16E0019B072B31
:1084A00001D90E4B11E00E4A019B1B0113440C3302
:1084B0001B7883F00103DBB2002B01D0094B04E0F1
:1084C000019B184602F0D2FC0023184603B05DF869
:1084D00004FB00BFE53F0120028000F0018000F0B6
:1084E000507C0020078000F000B587B0364B1B6D34
:1084F0000393354B5B6D039A13400393039B002B4F
:1085000001DA00BFFDE7002305930123049353E044
:10851000039A049B1340002B48D02B4B03F50053C8
:108520001A46049B1365059B1B01284A13440293BA
:10853000029B1B68002B39D0029B9B685A1C029B34
:108540009A60029B1B68029A9168029A5268059889
:1085500098470346002B14BF01230023DBB283F0AE
:108560000103DBB28DF807309DF8073003F00103FB
:108570008DF80730029B5B7B012B17D19DF80730EC
:10858000002B13D0124A059B5B01134403F1080230
:1085900013796FF3410313710D4A059B5B0113447B
:1085A00003F1180213796FF341031371059B013333
:1085B0000593049B5B000493059B072BA8D900BF80
:1085C00000BF07B05DF804FB00000450507C0020A1
:1085D000D07C002082B003468DF807309DF907302B
:1085E000002B0CDB9DF8073003F01F0205499DF9B5
:1085F00007305B09012000FA02F241F8232000BF96
:1086000002B0704700E100E082B003468DF8073009
:108610009DF90730002B0DDB9DF8073003F01F029A
:1086200006499DF907305B09012000FA02F2603328
:1086300041F8232000BF02B0704700BF00E100E016
:1086400082B00190044B03F500531A46019BC2F817
:10865000203400BF02B0704700C0035082B0064B08
:10866000D3F824340193044BD3F82024019B134006
:10867000184602B0704700BF00C0035000B587B075
:1086800001902BE001985AF00BF905900122059B0F
:1086900002FA03F3DB43019A13400193059B1B018C
:1086A000124A13440493049B5B68002B16D0049B6E
:1086B0001B7B002B0AD0049B5B680293059BDAB2FC
:1086C000049B9968029B1046984707E0049B5B68EF
:1086D0000393059BDAB2039B10469847019B002B3E
:1086E000D0D100BF00BF07B05DF804FBD07D0020F3
:1086F00008B5054B1B68054A12681146184631F04B
:1087000085FD0346184608BDB40E0020D40E002097
:1087100084B003468DF807309DF90730B3F1FF3F71
:1087200004D0002B05D10023039305E0044B0393F1
:1087300002E0044B039300BF039B184604B070474C
:1087400021E000F024E000F000B58BB0039002912E
:108750000192029B0893039B0793019B9B00069346
:10876000069A089907987AF017F903468DF817309A
:108770009DF917301846FFF7CBFF0990099B002B96
:1087800009D1069A0899079879F032FE0346002B22
:1087900001D0034B0993099B18460BB05DF804FB0D
:1087A00010E000F000B585B0019001987AF0F8F87B
:1087B00003468DF80B309DF90B301846FFF7A8FFE4
:1087C0000390039B002B0ED102F03EFE0346194698
:1087D00001985AF0BEF8034683F00103DBB2002B88
:1087E00001D0034B0393039B184605B05DF804FBCF
:1087F0000EE000F008B55AF0E2F90346014A1360B2
:1088000000BF08BD109F002008B5034B1B68184629
:108810005AF0E1F900BF08BD109F002000B583B0F9
:1088200009485AF035F90190019B03F01003002B21
:1088300006D0102104485AF01FF9044B01221A7087
:1088400000BF03B05DF804FB00800450E63F012048
:1088500008B500BF042104485AF040F90346002B34
:10886000F8D100BF00BF08BD8440005008B5FFF735
:10887000EFFF044BD3F884309B0903F00303DBB212
:10888000184608BD00400050054BDB6903F48033F7
:10889000002B14BF01230023DBB21846704700BF32
:1088A00000000350024B0022DA6300BF704700BF94
:1088B00000000350024B41F67132DA6300BF70478B
:1088C00000000350014B5B681846704700000350DE
:1088D00082B00190024A019B536000BF02B0704712
:1088E0000000035084B0019000230393019BB3F573
:1088F000607F21D0019BB3F5607F34D8019BB3F535
:10890000207F29D0019BB3F5207F2CD8019BB3F5A4
:10891000007F19D0019BB3F5007F24D8019B002B69
:1089200003D0019BB3F5C07F1DD1124B1B6F1B0BF6
:1089300003F00F03039317E00E4BD3F880301B09AD
:1089400003F0030303930FE00A4BD3F890301B0EA0
:1089500003F01F03039307E0064B1B6F9B0A03F012
:108960000103039300E000BF039B0133184604B0EA
:10897000704700BF0080005010B584B00190009196
:10898000019BB3F5607F4ED0019BB3F5607F00F291
:10899000A280019BB3F5207F00F08D80019BB3F591
:1089A000207F00F29880019BB3F5007F71D0019B7E
:1089B000B3F5007F00F28F80019B002B04D0019B58
:1089C000B3F5C07F40F08780009B012B0AD0009B4D
:1089D000022B07D0009B042B04D0009B082B01D056
:1089E000009B102B5AF0E1F85AF0D7F801F0FCF98F
:1089F0003C4B1B6F23F47042009B013B1B03394926
:108A000013430B675AF04BF80446FFF72FFF03465A
:108A1000C3F10203194620465AF0ABF801F004FCFA
:108A200001F0EEF95AE0304BDB6803F08073002B65
:108A300014BF012300238DF80F309DF80F30002B59
:108A400005D0294BDB68284A23F08073D360009B54
:108A5000012B07D0009B022B04D0009B032B01D0DD
:108A6000009B042B1F4BD3F8803023F03002009B77
:108A7000013B1B011B491343C1F880309DF80F30A7
:108A8000002B2AD0184BDB68174A43F08073D36061
:108A900023E0009B002B01D0009B202B114BD3F82F
:108AA000903023F0F852009B013B1B060D49134305
:108AB000C1F8903012E0009B012B01D0009B022BEB
:108AC000084B1B6F23F48062009B013B9B0205490E
:108AD00013430B6702E000BF00E000BF00BF04B01B
:108AE00010BD00BF00800050F0ED00E000B585B083
:108AF00001900B468DF8033000230393019B5B0923
:108B0000002B0CD0019B5B09012B02D10B4B039373
:108B100005E0019B5B09022B01D1094B0393019BEB
:108B200003F01F0302939DF803301A46029903983D
:108B300059F0BBFF00BF05B05DF804FB6480005036
:108B40006880005010B584B0019000230393002387
:108B50000293019BB3F5486F00F02983019BB3F5A5
:108B6000486F00F23683019BB3F5406F00F0EF824F
:108B7000019BB3F5406F00F22C83019BB3F5286F86
:108B800000F01B83019BB3F5286F00F22283019B49
:108B9000B3F5206F00F00583019BB3F5206F00F261
:108BA0001883019BB3F5106F00F0EF82019BB3F5C2
:108BB000106F00F20E83019BB3F5F06F00F003839A
:108BC000019BB3F5F06F00F20483019BB3F5E06FF6
:108BD00000F0E182019BB3F5E06F00F2FA82019BA5
:108BE000B3F5D06F00F0CB82019BB3F5D06F00F2EC
:108BF000F082019BB3F5C06F00F0BB82019BB3F51F
:108C0000C06F00F2E682019BB3F5B06F00F0A58261
:108C1000019BB3F5B06F00F2DC82019BB3F5A06F4E
:108C200000F08F82019BB3F5A06F00F2D282019B0E
:108C3000B3F5806F00F07F82019BB3F5806F00F287
:108C4000C882019BB3F5607F00F06682019BB3F59B
:108C5000607F00F2BE82019BB3F5407F00F04F823F
:108C6000019BB3F5407F00F2B482019BB3F5207FF6
:108C700000F03982019BB3F5207F00F2AA82019BAC
:108C8000B3F5007F00F02382019BB3F5007F00F273
:108C9000A082019BB3F5807F00F20A82019BB3F5AD
:108CA000807F00F2968201A252F823F0C59000085E
:108CB000D3910008D3910008D3910008D391000804
:108CC000D3910008D3910008D3910008D3910008F4
:108CD000D3910008D3910008D3910008D3910008E4
:108CE000D3910008D3910008D3910008D3910008D4
:108CF000D3910008D3910008D3910008D3910008C4
:108D0000D3910008D3910008D3910008D3910008B3
:108D1000D3910008D3910008D3910008D3910008A3
:108D2000D3910008D3910008D3910008C5900008A2
:108D3000E7900008C5900008E79000083791000808
:108D400037910008379100083791000837910008E3
:108D5000E79000085B910008FF90000873910008FD
:108D60007F910008FF900008E7900008E790000856
:108D7000E7900008D3910008D3910008D391000830
:108D8000D3910008D3910008D3910008D391000833
:108D9000D3910008E7900008E7900008E7900008EA
:108DA000C791000897910008E7900008D391000848
:108DB000D3910008D3910008D3910008D391000803
:108DC000D3910008D3910008D3910008D3910008F3
:108DD000D3910008D3910008D3910008D3910008E3
:108DE00037910008C5900008C5900008C59000089C
:108DF0008B910008FF900008FF900008A3910008E5
:108E0000BB910008439100084F910008D3910008DE
:108E1000D3910008D3910008D3910008D3910008A2
:108E2000AF910008C5900008D3910008D3910008C5
:108E3000D3910008D3910008D3910008D391000882
:108E4000D3910008D3910008D3910008D391000872
:108E5000D3910008D3910008D3910008D391000862
:108E6000D3910008D3910008D3910008D391000852
:108E7000D3910008D3910008D3910008D391000842
:108E8000D3910008D3910008D3910008D391000832
:108E9000D3910008D3910008D3910008D391000822
:108EA000D3910008D3910008D3910008BB9000082B
:108EB000D3910008D3910008D3910008D391000802
:108EC000D3910008D3910008D3910008D3910008F2
:108ED000D3910008D3910008D3910008D3910008E2
:108EE000D3910008D3910008D3910008D3910008D2
:108EF000D3910008D3910008D3910008D3910008C2
:108F0000D3910008D3910008D3910008D3910008B1
:108F1000D3910008D3910008D3910008D3910008A1
:108F2000D3910008D3910008D3910008D391000891
:108F3000D3910008D3910008D3910008D391000881
:108F4000D3910008D3910008D3910008D391000871
:108F5000D3910008D3910008D3910008D391000861
:108F6000D3910008D3910008D3910008D391000851
:108F7000D3910008D3910008D3910008D391000841
:108F8000D3910008D3910008D3910008D391000831
:108F9000D3910008D3910008D3910008D391000821
:108FA000D3910008D3910008D3910008D391000811
:108FB000D3910008D3910008D3910008D391000801
:108FC000D3910008D3910008D3910008D3910008F1
:108FD000D3910008D3910008D3910008D3910008E1
:108FE000D3910008D3910008D3910008D3910008D1
:108FF000D3910008D3910008D3910008D3910008C1
:10900000D3910008D3910008D3910008D3910008B0
:10901000D3910008D3910008D3910008D3910008A0
:10902000D3910008D3910008D3910008D391000890
:10903000D3910008D3910008D3910008D391000880
:10904000D3910008D3910008D3910008D391000870
:10905000D3910008D3910008D3910008D391000860
:10906000D3910008D3910008D3910008D391000850
:10907000D3910008D3910008D3910008D391000840
:10908000D3910008D3910008D3910008D391000830
:10909000D3910008D3910008D3910008D391000820
:1090A000D3910008D3910008D3910008679100087C
:1090B000019BB3F5C07F05D08BE0FEF719FB03469B
:1090C000039387E0FEF73CFB0346039382E0FEF741
:1090D0000FFB04464FF40070FFF704FC0346B4FB9B
:1090E000F3F3039376E0FEF72BFB04464FF4207076
:1090F000FFF7F8FB0346B4FBF3F303936AE0FEF7D4
:109100001FFB04464FF42070FFF7ECFB0346B4FB53
:10911000F3F35B0803935DE002AB0021184600F017
:1091200085FE029C4FF46070FFF7DCFB0346B4FB46
:10913000F3F303934EE003AB0021184600F0F4FE76
:1091400048E003AB0021184600F0D8FC42E003AB36
:109150000021184600F022FD3CE003AB0021184638
:1091600001F022F836E003AB0021184601F050F977
:1091700030E003AB0021184600F030FF2AE003ABDB
:109180000021184601F0ACF824E003AB002118469A
:1091900001F0F2F81EE003AB0021184601F05EF882
:1091A00018E003AB0021184600F050FD12E003ABBD
:1091B0000021184600F098FD0CE003AB0021184692
:1091C00000F0E0FD06E003AB0021184600F048FF88
:1091D00000E000BF039B184604B010BD00B585B089
:1091E000019000230393019BB3F5486F00F0C88101
:1091F000019BB3F5486F00F2CF81019BB3F5406F3F
:1092000000F0AC81019BB3F5406F00F2C581019B7A
:10921000B3F5286F00F0BA81019BB3F5286F00F217
:10922000BB81019BB3F5206F00F0A481019BB3F5D6
:10923000206F00F2B181019BB3F5106F00F07681D1
:10924000019BB3F5106F00F2A781019BB3F5086F86
:1092500000F07281019BB3F5086F00F29D81019BC4
:10926000B3F5F06F00F05681019BB3F5F06F00F29B
:109270009381019BB3F5E06F00F07681019BB3F51C
:10928000E06F00F28981019BB3F5D06F00F0488157
:10929000019BB3F5D06F00F27F81019BB3F5C06FE6
:1092A00000F03281019BB3F5C06F00F27581019B24
:1092B000B3F5B06F00F01681019BB3F5B06F00F20B
:1092C0006B81019BB3F5A06F00F04281019BB3F568
:1092D000A06F00F26181019BB3F5806F00F00881FF
:1092E000019BB3F5806F00F25781019BB3F5607F5E
:1092F00000F02881019BB3F5607F00F24D81019B56
:10930000802B00F2C780019B242BC0F04581019B7C
:10931000243B5C2B00F2408101A252F823F000BFF5
:10932000F1940008F1940008F1940008F194000809
:10933000F194000899950008E594000899950008B3
:10934000099500082195000899950008999500084D
:109350009995000899950008999500089995000835
:109360009995000899950008999500089995000825
:109370009995000899950008999500089995000815
:1093800099950008159500086995000899950008B9
:1093900099950008999500089995000899950008F5
:1093A00099950008999500089995000899950008E5
:1093B00099950008999500089995000899950008D5
:1093C00099950008F194000899950008999500086E
:1093D000999500082D950008999500089995000821
:1093E000759500088D950008519500085D95000859
:1093F0009995000899950008999500089995000895
:10940000999500088195000899950008999500089C
:109410009995000899950008999500089995000874
:109420009995000899950008999500089995000864
:109430009995000899950008999500089995000854
:109440009995000899950008999500089995000844
:109450009995000899950008999500089995000834
:109460009995000899950008999500089995000824
:109470009995000899950008999500089995000814
:109480009995000899950008999500089995000804
:109490009F940008019BB3F5807F2FD07CE0414B67
:1094A0001B6F03F00703013B032B17D801A252F8EF
:1094B00023F000BFD7940008C5940008CB9400089F
:1094C000D1940008052303930BE00323039308E0E2
:1094D0000823039305E00223039302E00023039390
:1094E00000BF5AE003AB1946002000F05DFE54E0D7
:1094F00003AB1946002000F017FD4EE003AB194600
:10950000002000F085FF48E003AB1946002000F082
:1095100065FD42E003AB1946002000F0A1FD3CE0F0
:1095200003AB1946002000F0DBFE36E003AB194622
:10953000002000F021FF30E003AB1946002000F0CE
:10954000B1FC2AE003AB1946002000F06FFC24E0D8
:1095500003AB1946002000F0D1FA1EE003AB194618
:10956000002000F01BFB18E003AB1946002000F0C0
:1095700075FE12E003AB1946002000F067FB0CE01B
:1095800003AB1946002000F0AFFB06E003AB194621
:10959000002000F0F7FB00E000BF039B184605B079
:1095A0005DF804FB00800050074B03F580531A461A
:1095B0004FF480135366054B03F580531A464FF45E
:1095C0008033936200BF7047008000500040005A13
:1095D00000B585B001908020FFF700FE0346032B05
:1095E00000F00C81874B03F580531A464FF480132B
:1095F0005366854B45F60E02C3F88020824B03F577
:1096000080531A464FF0A06393627F4B03F50053DB
:109610001A464FF48033936200BF7B4B9B6D03F47B
:109620008033002BF9D100BF774B9B6D03F0804353
:10963000002BF9D1019B1B681A06019B5B681B0577
:109640001A43019B1B7B1B041A43019B5B7B1B037F
:109650001A43019B9B7B9B011343019AD27B1146CA
:10966000694A0B431361684B9B6903F00042019BFD
:109670001B699B061A43019B5B691B061A43019BEE
:109680001B7E1B041A43019B5B7E1B021343019A42
:10969000927E11465C4A0B4393615B4B1B6A23F03D
:1096A0000F03019AD269002A01D1002200E00822AA
:1096B0001A43019BDB7E9B001A43019BDB695249E5
:1096C00013430B62019BDB69002B5CD14E4B9A6A02
:1096D0004E4B1340019A92F8202052011A43019BED
:1096E00093F821301B011A43019B93F82430DB00CF
:1096F0001343454A43F48033936200BF424B9A6D53
:10970000434B1340424A9342F8D13F4B03F58053F9
:109710001A464FF0807393623B4B1B6923F470022F
:10972000019B9B681B05384913430B61364B03F5BE
:1097300080531A464FF000439361019B93F8223007
:1097400083F00103DBB2002B06D02F4B03F500534F
:109750001A464FF080739362019B93F8233083F095
:109760000103DBB2002B3FD0274B03F500531A4611
:109770004FF48033936200BF234B9B6D03F0804313
:10978000002BF9D130E0019BDB69022B12D11E4B7B
:1097900000221A611C4B00229A6102230393039B4F
:1097A0001A03039B1B0213431A464FF47F411948C7
:1097B00059F0A1F9144B9A6A144B1340019A92F88C
:1097C000202052011A43019B93F822301B061A43B2
:1097D000019B93F82430DB001A43019B93F823305C
:1097E0001B04094913438B62019B93F82530002B1E
:1097F00005D0054B084AC3F8802000E000BF05B043
:109800005DF804FB008000500040005AC7FFFEFED8
:10981000030001003440005AF1A7FFFF00B585B0F6
:1098200001902A4B9B6A0293019BFF2B01D92123B4
:1098300047E0264B9B6D03F48033002B06D0234B6F
:1098400003F580531A464FF4803393621F4B03F5A0
:1098500080531A464FF08073936200F077F8034606
:109860001A46019B13440393039B002B02DA002347
:10987000039304E0039BFF2B01DDFF230393134BB2
:109880009B6923F47F0323F47F43039A12041A4352
:10989000019B1B029BB20D4913438B61029A4FF04F
:1098A00080710B4859F027F9084B9B6D03F4803306
:1098B000002B05D0029A4FF48031054859F01BF96E
:1098C0000023184605B05DF804FB00BF0040005AB5
:1098D0002840005A00B583B000230193194B9B6ABE
:1098E0000093184B9B6D03F48033002B06D0154B6F
:1098F00003F580531A464FF480339362114B03F5FE
:1099000080531A464FF0807393620E4B9B691B0A7B
:10991000DBB20193009A4FF080710B4859F0EBF8DD
:10992000084B9B6D03F48033002B05D0009A4FF455
:109930008031054859F0DFF8019B184603B05DF807
:1099400004FB00BF0040005A2840005A024B93F924
:1099500000301846704700BF4E15002000B583B098
:10996000214B9B6A0193204B03F580531A464FF419
:109970008033936200BF1C4B9B6D03F00303032BEA
:10998000F9D1194B03F580531A464FF08073936257
:1099900000BF154B9A6D154B1340144A9342F8D1F2
:1099A000114B03F580531A460123136500BF0E4B7C
:1099B0009B6D03F00203022BF9D000BF0A4B9B6D95
:1099C00003F00203002BF9D000BF074B9B6D03F09F
:1099D0000203002BF9D0019A0549064859F08BF88B
:1099E00000BF03B05DF804FB0040005A0300010013
:1099F000000001012840005A84B001904F230393D6
:109A0000019B5B788DF80B309DF80B20039B9342F4
:109A100028BF13468DF80A30284B03F580531A46A9
:109A20004FF400035366264B4FF4D1525A62244B35
:109A300003F580531A4602235360214B03F500536C
:109A40001A460123536000BF1D4B1B6903F480338A
:109A5000002BF9D1019B1B781A029DF80A30184996
:109A600013434B61019B5B681A02019B9B681B01BE
:109A70001A43019B1B7B5B001343019A527B1146E7
:109A80000F4A0B439360019B9B7B5A01019BDB7B3D
:109A90001B011A43019B1B7C5B001343019A527C00
:109AA0001A43074B5A60019B9B7C002B03D0044B4D
:109AB0006FF4D1525A6200BF04B07047008000506A
:109AC0000000025082B00346ADF80630034ABDF8EC
:109AD0000630138000BF02B0704700BF041500209D
:109AE00082B00346ADF80630034ABDF80630138055
:109AF00000BF02B0704700BF0615002000B585B05A
:109B00000190009100230293234BD3F8203203F0FD
:109B10000703042B2CD801A252F823F06B9B0008FA
:109B2000319B0008419B00084F9B00085D9B00088B
:109B300002AB0021184600F031F8122303931AE01B
:109B4000FDF744FE034602930723039313E058F006
:109B50002EFD034602930A2303930CE0FDF7A6FEB5
:109B6000034602930923039305E00123039302E0D4
:109B70000023039300BF019B002B02D0029A019B9C
:109B80001A60009B002B02D0009B039A1A6000BF52
:109B900005B05DF804FB00BF0080005000B585B043
:109BA0000190009100230393274BD3F8283103F051
:109BB0000703013B052B33D801A252F823F000BF65
:109BC000D99B0008FD9B0008159C0008F19B00082C
:109BD000E59B0008099C0008FDF784FD0390052320
:109BE000029320E0FDF77EFD0390062302931AE026
:109BF000FDF7ECFD03900723029314E0FDF7C4FD8D
:109C00000390032302930EE0FDF7BEFD03900423AF
:109C1000029308E0FDF7D4FD03900223029302E0D3
:109C20000023029300BF019B002B02D0019B039AEB
:109C30001A60009B002B02D0009B029A1A6000BFA2
:109C400005B05DF804FB00BF0080005000B585B092
:109C50000190009100230293224BD3F8603203F06D
:109C60000703013B032B29D801A252F823F000BFC0
:109C7000819C0008919C0008AF9C0008A19C0008F2
:109C800002AB0021184600F04FF91023039318E0AF
:109C900002AB0021184600F0A1F91123039310E054
:109CA000FDF794FD034602930723039309E0FDF7B4
:109CB00087FD034602930223039302E000230393EC
:109CC00000BF019B002B02D0029A019B1A60009BEF
:109CD000002B02D0009B039A1A6000BF05B05DF80C
:109CE00004FB00BF0080005000B585B001900091DA
:109CF00000230293224BD3F8943203F00703013B75
:109D0000032B29D801A252F823F000BF1D9D0008A3
:109D10002D9D00084B9D00083D9D000802AB0021D1
:109D2000184600F001F91023039318E002AB00215C
:109D3000184600F053F91123039310E0FDF746FD98
:109D4000034602930723039309E0FDF739FD034619
:109D500002930223039302E00023039300BF019BBD
:109D6000002B02D0029A019B1A60009B002B02D0AC
:109D7000009B039A1A6000BF05B05DF804FB00BFAA
:109D80000080005000B585B001900091002302933F
:109D9000144BD3F8703203F00303012B02D0022BD3
:109DA00008D00CE002AB0021184600F017F911238F
:109DB000039307E0002302931523039302E000239B
:109DC000039300BF019B002B02D0029A019B1A60F3
:109DD000009B002B02D0009B039A1A6000BF05B0C5
:109DE0005DF804FB00800050044B03F580531A46D5
:109DF0004FF48033136700BF704700BF00800050EE
:109E000008B58020FEF79EFE0346064A934206D818
:109E1000054B03F500531A464FF48033136700BF18
:109E200008BD00BF005A62020080005000B585B036
:109E30000190009100230393194BD3F8803003F075
:109E40000303032B12D0032B16D8012B02D0022BB5
:109E500006D011E0FDF74CFC03900E2302930EE0B8
:109E6000FDF7B4FC03900723029308E0FDF73AFCEA
:109E700003900623029302E00023029300BF019B9C
:109E8000002B02D0019B039A1A60009B002B02D08A
:109E9000009B029A1A6000BF05B05DF804FB00BF8A
:109EA0000080005000B585B001900091002303931D
:109EB0001C4BD3F8003103F00303032B1FD801A27E
:109EC00052F823F0F99E0008D59E0008E19E000894
:109ED000ED9E0008FDF758FC03900323029311E068
:109EE000FDF7E4FC0390092302930BE058F05CFBC0
:109EF00003900823029305E00123029302E000236C
:109F0000029300BF019B002B02D0019B039A1A60B1
:109F1000009B002B02D0009B029A1A6000BF05B084
:109F20005DF804FB0080005000B585B00190009101
:109F300000230393284BD3F8203103F00703062BAB
:109F400037D801A252F823F0959F0008659F0008BA
:109F5000719F0008899F00087D9F00089B9F000853
:109F6000A79F0008FDF7BEFB03900523029323E0A3
:109F7000FDF70AFC0390032302931DE0FDF726FC86
:109F800003900723029317E0FDF71AFC03900223C6
:109F9000029311E0012302930EE0FDF7A3FB03906F
:109FA0000623029308E0FDF7EFFB039004230293DE
:109FB00002E00023029300BF019B002B02D0019B13
:109FC000039A1A60009B002B02D0009B029A1A6031
:109FD00000BF05B05DF804FB0080005000B585B0FF
:109FE00001900091002303931C4BD3F8403103F000
:109FF0000303032B1FD801A252F823F031A000085D
:10A000000DA0000819A0000825A0000858F0CFFAFC
:10A0100003900A23029311E0FDF748FC0390092303
:10A0200002930BE058F0C7FA03900C23029305E06B
:10A030000123029302E00023029300BF019B002B47
:10A0400002D0019B039A1A60009B002B02D0009B58
:10A05000029A1A6000BF05B05DF804FB0080005052
:10A0600000B585B001900091002303931C4BD3F8F9
:10A07000603103F00303032B1FD801A252F823F031
:10A08000B5A0000891A000089DA00008A9A00008A4
:10A0900058F08DFA03900A23029311E0FDF706FCB5
:10A0A0000390092302930BE058F085FA03900C23E8
:10A0B000029305E00123029302E00023029300BF14
:10A0C000019B002B02D0019B039A1A60009B002B7E
:10A0D00002D0009B029A1A6000BF05B05DF804FB35
:10A0E0000080005084B0019000914FF4401303931E
:10A0F000009B002B0AD1019B0D4A934203D94FF4D8
:10A10000801303930FE0002303930CE0009B002BCC
:10A1100009DD019B074A934203D94FF4801303934F
:10A1200001E000230393039B184604B0704700BF6F
:10A13000005A6202002D310100B585B001900091F6
:10A14000184B03F580531A464FF480339366002072
:10A15000FEF7C8FB0246019B02FB03F30193FEF7E7
:10A1600093FB03468DF80F30FEF7A4FBFEF7AAFB26
:10A17000034623F44013029300990198FFF7B2FFBE
:10A180000246029B134302930298FEF7A1FB9DF83F
:10A190000F30002B01D0FEF785FB00BF05B05DF846
:10A1A00004FB00BF0080005000B585B00190009115
:10A1B000002302931B4BD3F8803103F00303032BDE
:10A1C0000ED0032B1AD8012B02D0022B0FD015E092
:10A1D00002AB00211846FFF7A7FE1023039310E0FF
:10A1E000FDF7F4FA034602930723039309E0FDF712
:10A1F000E7FA034602930223039302E0002303934A
:10A2000000BF019B002B02D0029A019B1A60009BA9
:10A21000002B02D0009B039A1A6000BF05B05DF8C6
:10A2200004FB00BF0080005000B583B002230193FF
:10A230004FF4C070FEF786FC0346074A934201D8EC
:10A240000123019301994FF42070FEF795FB00BFA5
:10A2500003B05DF804FB00BF80F0FA0200B585B0E2
:10A2600001900091002303931C4BD3F8403203F07C
:10A270000303032B1FD801A252F823F0B1A2000858
:10A280008DA2000899A20008A5A2000858F08FF935
:10A2900003900A23029311E0FDF708FB03900923C2
:10A2A00002930BE058F087F903900C23029305E02A
:10A2B0000123029302E00023029300BF019B002BC5
:10A2C00002D0019B039A1A60009B002B02D0009BD6
:10A2D000029A1A6000BF05B05DF804FB00800050D0
:10A2E00000B585B00190009100230393214BD3F872
:10A2F000003203F00703042B29D801A252F823F0FF
:10A3000049A3000815A3000821A300082DA30008F5
:10A3100039A3000858F04BF903900A23029319E07F
:10A32000FDF7C4FA03900923029313E058F043F9B0
:10A3300003900C2302930DE0FDF702FA03469B0AFB
:10A3400003930F23029305E00123029302E000230D
:10A35000029300BF019B002B02D0019B039A1A605D
:10A36000009B002B02D0009B029A1A6000BF05B030
:10A370005DF804FB0080005000B585B001900091AD
:10A3800000230393214BD3F8083203F00703042B77
:10A3900029D801A252F823F0E1A30008ADA30008D8
:10A3A000B9A30008C5A30008D1A3000858F0FFF81E
:10A3B00003900A23029319E0FDF778FA039009232A
:10A3C000029313E058F0F7F803900C2302930DE08A
:10A3D000FDF7B6F903469B0A03930F23029305E0AA
:10A3E0000123029302E00023029300BF019B002B94
:10A3F00002D0019B039A1A60009B002B02D0009BA5
:10A40000029A1A6000BF05B05DF804FB008000509E
:10A4100000B585B00190009100230393114B1B6898
:10A4200003F00403002B06D0FDF78AF903460393DB
:10A430000D23029305E002AA03AB11461846FFF76D
:10A44000CDFD019B002B02D0039A019B1A60009B5B
:10A45000002B02D0029A009B1A6000BF05B05DF885
:10A4600004FB00BF10E000E0054B5B68C3F308038A
:10A47000002B14BF01230023DBB21846704700BF36
:10A4800000ED00E084B003468DF807309DF90730F9
:10A49000002B02DB9DF907304B2B0C4B03939DF9EE
:10A4A00007305A09039B53F822209DF8073003F028
:10A4B0001F0322FA03F303F00103002B0CBF012357
:10A4C0000023DBB2184604B0704700BF00E100E093
:10A4D000024B034A1A6400BF704700BF0040095096
:10A4E0003254FFFF024B4AF6CD321A6400BF704768
:10A4F0000040095082B0019000BF054B5A6B019B90
:10A500001340002BF9D100BF00BF02B0704700BF5D
:10A510000040095008B500BF0421044858F0B1FBC1
:10A520000346002BF8D100BF00BF08BD8440005097
:10A5300008B5FFF7EFFF044BD3F884309B0903F015
:10A540000303DBB2184608BD0040005082B0019002
:10A55000044B03F500531A46019BC2F8203400BF98
:10A5600002B0704700C0035000B583B00190019B5A
:10A570001A78054B1A700121002000F077F800BF0F
:10A5800003B05DF804FB00BFC49F002082B00190BF
:10A59000064B5B6F23F44072019B5B781B020349FF
:10A5A00013434B6700BF02B0704700BF004000502C
:10A5B00000B583B003468DF807300F4B1B690E4A78
:10A5C00043F00403136112F0D9FA58F075FB0B48FD
:10A5D000FFF7BCFF30BF58F071FB12F019FB9DF87C
:10A5E000073083F00103DBB2002B01D058F044FBAD
:10A5F00000BF03B05DF804FB00ED00E00000FF0FBA
:10A6000000B583B003468DF807300D4B1B690C4A2B
:10A6100043F0040313610B48FFF798FF12F0AEFA02
:10A6200030BF12F0F5FA9DF8073083F00103DBB27A
:10A63000002B01D058F020FB00BF03B05DF804FBF5
:10A6400000ED00E00000FF0F82B00190064BDB6ED2
:10A6500023F03003019A12791146034A0B43D36663
:10A6600000BF02B0704700BF0040005000B585B089
:10A6700001900B468DF80330019B002B03D1FDF7B1
:10A6800037F8039001E0019B03930D4B1B78002BDF
:10A690000AD0039B0B4A934206D89DF80330194613
:10A6A000012000F011F806E09DF803301946022061
:10A6B00000F00AF800BF00BF05B05DF804FB00BF62
:10A6C000C49F0020005A620210B586B003460A46B5
:10A6D0008DF8073013468DF80630FFF729FF034643
:10A6E0001A469DF80730934240D0FDF701F80590D7
:10A6F000059B04939DF80730012B03D10121059898
:10A7000058F037FA58F05BFA03901A4B03F50053F0
:10A710001A464FF0007353669DF80730184658F0FC
:10A72000D3FA144C9DF80730184658F0B7FA034690
:10A73000236702E00F4BD3F884300E4B5B6E03F0BF
:10A740000073002B06D10B4BD3F8843003F02003A9
:10A75000002BEFD0039858F03EFA9DF80730022BFB
:10A7600005D10021059858F004FA00E000BF06B0BA
:10A7700010BD00BF0040005000B587B003468DF803
:10A7800007300023059300230493404B03F58053C7
:10A790001A464FF0004353663D4B5B6C03F00103D8
:10A7A000002B14BF012300238DF80F30FFF79AFE12
:10A7B0009DF80730002B28D10120FFF79BFE344B7A
:10A7C0005B6803F001030293029B002B50D0304BD7
:10A7D00003F500531A460123536002E0049B013342
:10A7E00004932B4B1B6B03F00103002B03D1049B41
:10A7F000284A9342F2D9049B264A934238D9072328
:10A80000059335E0049B01330493214B1B6B03F04C
:10A810000803002B03D0049B1E4A9342F2D9049BE9
:10A820001C4A934202D90723059321E0184B03F5F4
:10A8300000531A4620239362154B03F580531A46A2
:10A84000012353600023049302E0049B013304932B
:10A850000F4B9B6A03F02003002B03D1049B0D4A8E
:10A860009342F2D9049B0B4A934201D907230593E3
:10A870009DF80F30002B01D0FFF72AFE72F04BFA43
:10A88000059B184607B05DF804FB00BF0080005030
:10A89000004009503F420F0000B585B00190254BA4
:10A8A00003F580531A464FF000435366224B5B6C0E
:10A8B00003F00103002B14BF012300238DF80F3098
:10A8C000FFF710FE019B5B785B001C4A43F001031D
:10A8D000D3630B20FFF70EFE174B5B6823F4F8726F
:10A8E000019B9B781B01144913434B60019BDB7850
:10A8F0001B02019A527911460F4A0B439360019B48
:10A900001B791B02019A927911460B4A0B43136182
:10A91000019B1B781846FFF72FFF9DF80F30002B87
:10A9200001D0FFF7D5FD72F0F6F90123184605B006
:10A930005DF804FB008000500040095000400050CA
:10A9400000B585B0019000238DF80F3000238DF8FD
:10A950000E30019B0F2B01D90F2301931E4B5B6E11
:10A96000DB0F8DF80E301C4B03F580531A464FF069
:10A9700000435366194B5B6C03F00103002B14BFBB
:10A98000012300238DF80F30FFF7ACFD8020FFF787
:10A99000B1FD124B1B6A23F00F021049019B1343B8
:10A9A0000B629DF80F30002B01D0FFF791FD9DF851
:10A9B0000E3083F00103DBB2002B06D0064B03F50B
:10A9C00000531A464FF00043536672F0A4F900BFDB
:10A9D00005B05DF804FB00BF008000500040095046
:10A9E00000B585B003468DF8073000238DF80F3091
:10A9F00000238DF80E301F4B5B6EDB0F8DF80E3091
:10AA00001C4B03F580531A464FF0004353661A4B14
:10AA10005B6C03F00103002B14BF012300238DF8AE
:10AA20000F30FFF75FFD8020FFF764FD124B1B6ABC
:10AA300023F4F8529DF807301B020F4913430B62B1
:10AA40009DF80F30002B01D0FFF742FD9DF80E302E
:10AA500083F00103DBB2002B06D0064B03F5005355
:10AA60001A464FF00043536672F055F900BF05B027
:10AA70005DF804FB008000500040095082B003469E
:10AA800000918DF807309DF80730002B0AD09DF813
:10AA90000730012B06D09DF80730022B02D09DF81D
:10AAA0000730032B08489DF807200121009B99409F
:10AAB00013465B0013441B01034403F50153196063
:10AAC00000BF02B0704700BF00C0035082B0034611
:10AAD00000918DF807309DF80730002B0AD09DF8C3
:10AAE0000730012B06D09DF80730022B02D09DF8CD
:10AAF0000730032B08489DF807200121009B99404F
:10AB000013465B0013441B01034403F58253196091
:10AB100000BF02B0704700BF00C0035000B585B051
:10AB200002910192009303468DF80F309DF80F308B
:10AB3000002B0AD09DF80F30012B06D09DF80F3066
:10AB4000022B02D09DF80F30032B019B002B0FD05E
:10AB5000009B002B06D09DF80F3002991846FFF796
:10AB6000B5FF05E09DF80F3002991846FFF786FF04
:10AB7000029B072B17D89DF80F2013465B00134448
:10AB80001B011A1D204B1344029A92000F2101FA57
:10AB900002F0029A9200019901FA02F20146184667
:10ABA00058F099F819E09DF80F2013465B00134404
:10ABB0001B0103F10C02144B1344029A083A920051
:10ABC0000F2101FA02F0029A083A9200019901FA63
:10ABD00002F20146184658F07EF8019B002B0FD177
:10ABE000009B002B06D09DF80F3002991846FFF706
:10ABF0006DFF05E09DF80F3002991846FFF73EFF04
:10AC000000BF05B05DF804FB30C0035082B00346BE
:10AC10008DF807309DF90730002B0CDB9DF80730CD
:10AC200003F01F0205499DF907305B09012000FA76
:10AC300002F241F8232000BF02B0704700E100E0BB
:10AC400082B003468DF807309DF90730002B0DDBED
:10AC50009DF8073003F01F0206499DF907305B0994
:10AC6000012000FA02F2603341F8232000BF02B055
:10AC7000704700BF00E100E082B0034600918DF80C
:10AC800007309DF90730002B0ADB009BDAB20C4934
:10AC90009DF907301201D2B20B4483F800230BE078
:10ACA000009BDAB207499DF8073003F00F03043B1D
:10ACB0001201D2B20B441A7600BF02B0704700BF37
:10ACC00000E100E000ED00E000B585B00190012159
:10ACD0002020FDF70BFF01212120FDF707FF1B4B73
:10ACE00001225A60019B1B781B060393174A039BA2
:10ACF0009360019B5B781B04019A92781146134A7A
:10AD00000B439361114BFF229A62104B00229A630E
:10AD10000E4B00221A640D4B4FF000425A650B4B4C
:10AD200003F500531A464FF0FF3313651520FFF764
:10AD300087FF019BDB7819461520FFF79DFF152043
:10AD4000FFF764FF00BF05B05DF804FB000004508E
:10AD500000B587B0039002910192039BDBB21A46C3
:10AD60000123934005933E4B03F500531A46059B80
:10AD700013653C49029B1A68039B9B000B445A6075
:10AD8000029B5B7B36491846039A13465B001344CB
:10AD90001B010B4460331860029B9B7A1A04029BD0
:10ADA000DB7A1B051A43029B1B7B5B0513432C4973
:10ADB0001846039A13465B0013441B010B445C3393
:10ADC0001860019B264823F00301039A13465B0099
:10ADD00013441B0103447033196057F01AFF0490A9
:10ADE0001F4B5A6D1E49059B13434B65029B1B7AF3
:10ADF000002B05D01A4B1A6C1949059B13430B64A1
:10AE0000029B5B7A002B05D0154B9A6B1449059B6E
:10AE100013438B63029B1B791B04029A92791343A1
:10AE20000F4A03F0FF1302F500529361029B5B7916
:10AE30001B04029AD2791343094A03F0FF1302F567
:10AE4000805293610599084857F064FF044A059BB6
:10AE50009364049857F0EDFE00BF07B05DF804FB63
:10AE600000000450004004503400045000B585B088
:10AE70000190019BDBB21A4601239340039357F0E4
:10AE8000C8FE0290084B5A6D039BDB4306491340F2
:10AE90004B65054A039B9362029857F0CAFE00BFB8
:10AEA00005B05DF804FB00BF0000045000B587B09A
:10AEB000019000238DF81730019BDBB21A46012365
:10AEC0009340049357F0A5FE03900C4BDA6A049B61
:10AED0001340002B09D1094B5A6B049B1340049A71
:10AEE0009A4202D101238DF81730039857F0A1FE42
:10AEF0009DF81730184607B05DF804FB00000450B9
:10AF0000094B03F580531A464FF480339366074B81
:10AF100041F67132DA63054B03F500531A460123FB
:10AF2000D36000BF704700BF008000500000035096
:10AF30000A4B41F67132DA63084B03F500531A46A7
:10AF40000123D360054B0022DA63054B03F5005360
:10AF50001A464FF48033936600BF704700000350D9
:10AF60000080005084B001900B468DF803309DF8AE
:10AF70000330002B0BD10E4A019B063352F82330CD
:10AF80009AB247F607731340ADF80E300AE0084A4C
:10AF9000019B163352F823309AB247F607731340D9
:10AFA000ADF80E30BDF80E30184604B0704700BF43
:10AFB0000080035084B0019000230393019B322B47
:10AFC00000F2858001A252F823F000BF99B000087A
:10AFD0009FB00008CFB00008CFB00008CFB0000885
:10AFE000CFB00008CFB00008CFB00008CFB0000845
:10AFF000CFB00008CFB00008CFB00008CFB0000835
:10B00000CFB00008CFB00008CFB00008CFB0000824
:10B01000CFB00008C3B00008CFB00008C9B0000826
:10B02000CFB00008CFB00008CFB00008CFB0000804
:10B03000CFB00008CFB00008CFB00008CFB00008F4
:10B04000CFB00008CFB00008CFB00008CFB00008E4
:10B05000A5B00008ABB00008B1B00008B7B0000858
:10B06000CFB00008CFB00008CFB00008CFB00008C4
:10B07000CFB00008CFB00008CFB00008CFB00008B4
:10B08000CFB00008CFB00008CFB00008CFB00008A4
:10B09000CFB00008BDB000080023039318E00323DD
:10B0A000039315E00123039312E0022303930FE0BF
:10B0B000042303930CE00523039309E00623039381
:10B0C00006E00723039303E00823039300E000BF97
:10B0D000039B184604B0704784B001900091009B18
:10B0E0000393019B012B76D0019B002B00F0A780DE
:10B0F000019B322B00F2A380019B122BC0F09F809A
:10B10000019B123B202B00F29A8001A252F823F0FF
:10B1100007B200083FB2000823B200083FB200089F
:10B120003FB200083FB200083FB200083FB200083B
:10B130003FB200083FB200083FB200083FB200082B
:10B140003FB200083FB200083FB2000895B10008C6
:10B1500095B1000895B1000895B100083FB200080C
:10B160003FB200083FB200083FB200083FB20008FB
:10B170003FB200083FB200083FB200083FB20008EB
:10B180003FB200083FB200083FB200083FB20008DB
:10B1900095B10008009B042B1BD801A252F823F0A4
:10B1A000B5B10008BBB10008C1B10008C7B10008C3
:10B1B000CDB10008002303930CE00123039309E0C1
:10B1C0000223039306E00323039303E00423039382
:10B1D00000E000BF34E0009B022B0FD0009B022B4D
:10B1E0000FD8009B002B03D0009B012B03D008E05D
:10B1F0000023039306E00123039303E00223039358
:10B2000000E000BF1CE0009B022B03D0009B032B3F
:10B2100003D005E00023039302E00123039300BF62
:10B220000EE0009B022B03D0009B032B03D005E014
:10B230000023039302E00123039300BF00E000BF5B
:10B24000039B184604B0704700B585B001900B46CB
:10B250008DF803301346ADF80030BDF800301B0AFE
:10B2600003F07F030393BDF8003003F0070302935C
:10B270009DF80330002B0BD1039B1A02029B134352
:10B280000E4943F44022019B063341F8232011E08C
:10B2900002990398FFF720FF02900398FFF78AFEB8
:10B2A0000390039B1A020549029B1A43019B163324
:10B2B00041F8232000BF05B05DF804FB0080035077
:10B2C00084B001900B468DF803301346ADF8003082
:10B2D0000E4B0393BDF800300293029B23F003034F
:10B2E000039A13440393BDF80030002B0BD09DF854
:10B2F0000330002B03D1039B019A1A6003E0019BEA
:10B300001A02039B1A6000BF04B07047008003500C
:10B31000044B03F580531A464FF40033136700BF04
:10B32000704700BF00400050024BD3F894301846DD
:10B33000704700BF00400050014B9B6918467047A2
:10B3400000C0075000B585B00190114B03F5805344
:10B350001A464FF480335366FFF7EEFF0390039BCA
:10B360009B09DBB203F03F03DAB2019B9A70039BA7
:10B37000DBB203F03F03DAB2019B5A70039B1B0B55
:10B38000DAB2019B1A7000BF05B05DF804FB00BF84
:10B390000080005000B583B000238DF8073000F026
:10B3A00065F80346ADF80430BDF80430144AA2FB3A
:10B3B00003239B099BB24133ADF80230BDF8023044
:10B3C000432B0ED0432B10DC412B02D0422B04D058
:10B3D0000BE004238DF807300BE005238DF80730D0
:10B3E00007E003238DF8073003E000238DF80730D2
:10B3F00000BF9DF80730184603B05DF804FB00BF9E
:10B40000D34D6210F0B482B00E4B9B6C01930D4B88
:10B41000DB6C00221E4617464FF000024FF000037F
:10B4200033000022019E00273046394642EA0004DC
:10B4300043EA010522462B461046194602B0F0BCED
:10B44000704700BF0080E00F82B0074B9B68DBB203
:10B450000193019B0A3303F01F03012202FA03F355
:10B46000184602B0704700BF0080E00F024B5B68D7
:10B470009BB21846704700BF0080E00F82B0019079
:10B480000B468DF80330019B084A934204D1084AC9
:10B490009DF80330C2F8C831019BDB6D43F0800298
:10B4A000019BDA6500BF02B0704700BF00C00550C5
:10B4B0000080035000B587B00390029101928DF88F
:10B4C000033000230593029B002B04D14FF420701E
:10B4D000FDF738FB02909DF80330602B13D0602BF2
:10B4E00014DC402B0CD0402B10DC002B02D0202B86
:10B4F00003D00BE01023059309E00823059306E031
:10B500000623059303E00423059300E000BF059B99
:10B51000002B2AD0029B5A01059B019901FB03F3E2
:10B520005B0813440493059B019A02FB03F3049AFE
:10B53000B2FBF3F30493049B203B0493049BDB00D6
:10B540000493049A0B4B13400493039B9B6823F0D2
:10B550006002039B9A60039B9A689DF803301A432C
:10B56000039B9A60039B049ADA6100BF07B05DF801
:10B5700004FB00BFF8FF7F0000B583B0019000918D
:10B58000019800F087F8019B03F580531A460123C8
:10B590005360009B9B7C002B05D0019B9B6843F074
:10B5A0008042019B9A60009BDB7C002B05D0009BB6
:10B5B0001B7D19460198FFF761FF009B5B7B1A46D4
:10B5C000009B1B8A1343009AD2891A43019BDA60BD
:10B5D000009B5968009B9A68009B1B7B0198FFF7B2
:10B5E00069FF009B5B7D002B05D0019B9B6843F4AA
:10B5F0008032019B9A60009B9B7D002B05D0019BB4
:10B600009B6843F40042019B9A60009BDB7D1B0713
:10B6100003F0E042009B1B7E1B0503F4E0031A438A
:10B62000019B9A65009B5B7E022B03D0009B5B7E97
:10B63000032B07D1164B03F580531A460223C2F899
:10B64000203706E0124B03F500531A460223C2F8D6
:10B650002037009B5B7E012B03D0009B5B7E032B7E
:10B6600006D1019B03F580531A460423D36505E0F8
:10B67000019B03F500531A460423D365009B1B78F6
:10B680001A46019B5A6100BF03B05DF804FB00BF7E
:10B6900000C0035082B00190019B03F580531A460D
:10B6A00001235360019B40F6AA625A61019B00226C
:10B6B0009A60019B0022DA65019B41F20502DA6083
:10B6C000019B00221A61019B0022DA61019B00228A
:10B6D000DA64019B03F500531A460E4B9364019BF9
:10B6E00000229A65019B0C4A934202D1019B0022E1
:10B6F0001A65019B084A934202D1019B00225A65B8
:10B70000019B03F500531A460123536000BF02B0AA
:10B71000704700BFFFFF010000C0055000B58BB0AF
:10B720000790069105920493069B0993049B002BB6
:10B7300001D157F09CFD099B002B01D1094B0993C6
:10B74000049B029300230193012300930423059A91
:10B750000999079800F008F80890089B18460BB064
:10B760005DF804FBD80E002000B589B00590049167
:10B7700003920293039B002B0ED10C9B08221A709C
:10B780000C9B2B4A5A600C9B4FF4D9629A600C9B1D
:10B79000284ADA6000BFFDE7029B002B05D0029B20
:10B7A0005A1E029B1340002B02D0029B002B01D19A
:10B7B000012300E00023002B0ED10C9B08221A70FD
:10B7C0000C9B1B4A5A600C9B40F2CB629A600C9B0C
:10B7D000184ADA6000BFFDE757F01BFA07900C9B90
:10B7E00001930B9B00930A9B029A0399049800F023
:10B7F00023F806900C9B1B78002B11D0079857F06C
:10B8000018FA0C9B16221A700C9B094A5A600C9B62
:10B8100040F2D7629A600C9B064ADA60002303E08C
:10B82000079857F006FA069B184609B05DF804FB26
:10B83000D02A0808142B08088AB0039002910192BC
:10B840000093019B002B01D0019B00E00423009A90
:10B85000934238BF13460993039B9B681A46099B82
:10B860005B421A40039B9B681946099B013B0B40B6
:10B87000002B01D0099B00E0002313440893089A91
:10B88000029B1A44009B5B421A400899029B194490
:10B89000009B013B0B40002B01D0009B00E00023EC
:10B8A00013440793039B5B681A46039B9B68D31A58
:10B8B00001330693039B9B681A46079B9B1A0593CB
:10B8C000069A059B9A4216D20A9B002B04D0059A31
:10B8D000069BD21A0A9B1A600B9B16221A700B9BAE
:10B8E0000F4A5A600B9B40F222729A600B9B0D4AE2
:10B8F000DA60002310E0079A039B9A600B9B0022FA
:10B900001A700B9B064A5A600B9B4FF4E5629A60D3
:10B910000B9B044ADA60089B18460AB0704700BFC8
:10B92000D02A08082C2B080800B585B0124B1B78CC
:10B93000012B0AD1FEF798FD0346002B02D06FF0D1
:10B94000050315E04FF0FF3312E06B46184600F098
:10B9500031FB9DF80030002B02D04FF0FF3307E0A1
:10B960009DF80030002B02D04FF0FF3300E00023A1
:10B97000184605B05DF804FBE73F01200A4B1B7831
:10B98000012B0DD1094B1B78012B07D1084B1B78DC
:10B99000002B01D0032304E0022302E0012300E096
:10B9A00000231846704700BFE83F0120E73F012011
:10B9B000EB3F012000B585B0FEF756FD0346002B96
:10B9C00002D06FF005030CE0084B1B78012B02D16D
:10B9D0004FF0FF3305E06B46184600F085FD4FF051
:10B9E000FF33184605B05DF804FB00BFE73F0120B8
:10B9F00000B585B0FEF738FD0346002B02D06FF08E
:10BA0000050311E00A4B1B78002B01D001230BE04A
:10BA10006B46184600F088FC9DF80030002B02D0E1
:10BA20004FF0FF3300E00023184605B05DF804FB3B
:10BA3000EB3F012000B589B00190FEF715FD0346EC
:10BA4000002B01D0002361E0324B0693019B002BB9
:10BA50000DD11C2053F0B4FF03460793079B002B26
:10BA600001D1002352E0079B01221A762AE0019BB4
:10BA70009B68002B0DD11C2053F0A2FF03460793B7
:10BA8000079B002B01D1002340E0079B01221A767F
:10BA900011E0019BDB681B2B05D9019B9B6803F020
:10BAA0000303002B01D0002330E0019B9B68079328
:10BAB000079B00221A76019B1B68002B02D0019B7A
:10BAC0001B680693079B02AA0699184601F08EFD93
:10BAD0009DF80830002B08D0079B1B7E012B02D15C
